{
	"data": {
		"bytecode": {
			"linkReferences": {},
			"object": "608060405234801561001057600080fd5b506102ae806100206000396000f3fe608060405234801561001057600080fd5b506004361061002b5760003560e01c8063c1cc9b6f14610030575b600080fd5b61004a60048036038101906100459190610111565b61004c565b005b6040518060400160405280600881526020017f666162756c6f75730000000000000000000000000000000000000000000000008152509050600591505050565b600061009f61009a84610192565b61016d565b9050828152602081018484840111156100bb576100ba610241565b5b6100c68482856101cd565b509392505050565b600082601f8301126100e3576100e261023c565b5b81356100f384826020860161008c565b91505092915050565b60008135905061010b81610261565b92915050565b600080604083850312156101285761012761024b565b5b6000610136858286016100fc565b925050602083013567ffffffffffffffff81111561015757610156610246565b5b610163858286016100ce565b9150509250929050565b6000610177610188565b905061018382826101dc565b919050565b6000604051905090565b600067ffffffffffffffff8211156101ad576101ac61020d565b5b6101b682610250565b9050602081019050919050565b6000819050919050565b82818337600083830152505050565b6101e582610250565b810181811067ffffffffffffffff821117156102045761020361020d565b5b80604052505050565b7f4e487b7100000000000000000000000000000000000000000000000000000000600052604160045260246000fd5b600080fd5b600080fd5b600080fd5b600080fd5b6000601f19601f8301169050919050565b61026a816101c3565b811461027557600080fd5b5056fea2646970667358221220b0a068fef44d844493dff9394e08f6fc62dc40a1ebb2ad5e33ca9a62c42bf3aa64736f6c63430008070033",
			"opcodes": "PUSH1 0x80 PUSH1 0x40 MSTORE CALLVALUE DUP1 ISZERO PUSH2 0x10 JUMPI PUSH1 0x0 DUP1 REVERT JUMPDEST POP PUSH2 0x2AE DUP1 PUSH2 0x20 PUSH1 0x0 CODECOPY PUSH1 0x0 RETURN INVALID PUSH1 0x80 PUSH1 0x40 MSTORE CALLVALUE DUP1 ISZERO PUSH2 0x10 JUMPI PUSH1 0x0 DUP1 REVERT JUMPDEST POP PUSH1 0x4 CALLDATASIZE LT PUSH2 0x2B JUMPI PUSH1 0x0 CALLDATALOAD PUSH1 0xE0 SHR DUP1 PUSH4 0xC1CC9B6F EQ PUSH2 0x30 JUMPI JUMPDEST PUSH1 0x0 DUP1 REVERT JUMPDEST PUSH2 0x4A PUSH1 0x4 DUP1 CALLDATASIZE SUB DUP2 ADD SWAP1 PUSH2 0x45 SWAP2 SWAP1 PUSH2 0x111 JUMP JUMPDEST PUSH2 0x4C JUMP JUMPDEST STOP JUMPDEST PUSH1 0x40 MLOAD DUP1 PUSH1 0x40 ADD PUSH1 0x40 MSTORE DUP1 PUSH1 0x8 DUP2 MSTORE PUSH1 0x20 ADD PUSH32 0x666162756C6F7573000000000000000000000000000000000000000000000000 DUP2 MSTORE POP SWAP1 POP PUSH1 0x5 SWAP2 POP POP POP JUMP JUMPDEST PUSH1 0x0 PUSH2 0x9F PUSH2 0x9A DUP5 PUSH2 0x192 JUMP JUMPDEST PUSH2 0x16D JUMP JUMPDEST SWAP1 POP DUP3 DUP2 MSTORE PUSH1 0x20 DUP2 ADD DUP5 DUP5 DUP5 ADD GT ISZERO PUSH2 0xBB JUMPI PUSH2 0xBA PUSH2 0x241 JUMP JUMPDEST JUMPDEST PUSH2 0xC6 DUP5 DUP3 DUP6 PUSH2 0x1CD JUMP JUMPDEST POP SWAP4 SWAP3 POP POP POP JUMP JUMPDEST PUSH1 0x0 DUP3 PUSH1 0x1F DUP4 ADD SLT PUSH2 0xE3 JUMPI PUSH2 0xE2 PUSH2 0x23C JUMP JUMPDEST JUMPDEST DUP2 CALLDATALOAD PUSH2 0xF3 DUP5 DUP3 PUSH1 0x20 DUP7 ADD PUSH2 0x8C JUMP JUMPDEST SWAP2 POP POP SWAP3 SWAP2 POP POP JUMP JUMPDEST PUSH1 0x0 DUP2 CALLDATALOAD SWAP1 POP PUSH2 0x10B DUP2 PUSH2 0x261 JUMP JUMPDEST SWAP3 SWAP2 POP POP JUMP JUMPDEST PUSH1 0x0 DUP1 PUSH1 0x40 DUP4 DUP6 SUB SLT ISZERO PUSH2 0x128 JUMPI PUSH2 0x127 PUSH2 0x24B JUMP JUMPDEST JUMPDEST PUSH1 0x0 PUSH2 0x136 DUP6 DUP3 DUP7 ADD PUSH2 0xFC JUMP JUMPDEST SWAP3 POP POP PUSH1 0x20 DUP4 ADD CALLDATALOAD PUSH8 0xFFFFFFFFFFFFFFFF DUP2 GT ISZERO PUSH2 0x157 JUMPI PUSH2 0x156 PUSH2 0x246 JUMP JUMPDEST JUMPDEST PUSH2 0x163 DUP6 DUP3 DUP7 ADD PUSH2 0xCE JUMP JUMPDEST SWAP2 POP POP SWAP3 POP SWAP3 SWAP1 POP JUMP JUMPDEST PUSH1 0x0 PUSH2 0x177 PUSH2 0x188 JUMP JUMPDEST SWAP1 POP PUSH2 0x183 DUP3 DUP3 PUSH2 0x1DC JUMP JUMPDEST SWAP2 SWAP1 POP JUMP JUMPDEST PUSH1 0x0 PUSH1 0x40 MLOAD SWAP1 POP SWAP1 JUMP JUMPDEST PUSH1 0x0 PUSH8 0xFFFFFFFFFFFFFFFF DUP3 GT ISZERO PUSH2 0x1AD JUMPI PUSH2 0x1AC PUSH2 0x20D JUMP JUMPDEST JUMPDEST PUSH2 0x1B6 DUP3 PUSH2 0x250 JUMP JUMPDEST SWAP1 POP PUSH1 0x20 DUP2 ADD SWAP1 POP SWAP2 SWAP1 POP JUMP JUMPDEST PUSH1 0x0 DUP2 SWAP1 POP SWAP2 SWAP1 POP JUMP JUMPDEST DUP3 DUP2 DUP4 CALLDATACOPY PUSH1 0x0 DUP4 DUP4 ADD MSTORE POP POP POP JUMP JUMPDEST PUSH2 0x1E5 DUP3 PUSH2 0x250 JUMP JUMPDEST DUP2 ADD DUP2 DUP2 LT PUSH8 0xFFFFFFFFFFFFFFFF DUP3 GT OR ISZERO PUSH2 0x204 JUMPI PUSH2 0x203 PUSH2 0x20D JUMP JUMPDEST JUMPDEST DUP1 PUSH1 0x40 MSTORE POP POP POP JUMP JUMPDEST PUSH32 0x4E487B7100000000000000000000000000000000000000000000000000000000 PUSH1 0x0 MSTORE PUSH1 0x41 PUSH1 0x4 MSTORE PUSH1 0x24 PUSH1 0x0 REVERT JUMPDEST PUSH1 0x0 DUP1 REVERT JUMPDEST PUSH1 0x0 DUP1 REVERT JUMPDEST PUSH1 0x0 DUP1 REVERT JUMPDEST PUSH1 0x0 DUP1 REVERT JUMPDEST PUSH1 0x0 PUSH1 0x1F NOT PUSH1 0x1F DUP4 ADD AND SWAP1 POP SWAP2 SWAP1 POP JUMP JUMPDEST PUSH2 0x26A DUP2 PUSH2 0x1C3 JUMP JUMPDEST DUP2 EQ PUSH2 0x275 JUMPI PUSH1 0x0 DUP1 REVERT JUMPDEST POP JUMP INVALID LOG2 PUSH5 0x6970667358 0x22 SLT KECCAK256 0xB0 LOG0 PUSH9 0xFEF44D844493DFF939 0x4E ADDMOD 0xF6 0xFC PUSH3 0xDC40A1 0xEB 0xB2 0xAD 0x5E CALLER 0xCA SWAP11 PUSH3 0xC42BF3 0xAA PUSH5 0x736F6C6343 STOP ADDMOD SMOD STOP CALLER "
		},
		"gasEstimates": {
			"creation": {
				"codeDepositCost": "137200",
				"executionCost": "183",
				"totalCost": "137383"
			},
			"external": {
				"CreateZombie(uint256,string)": "infinite"
			}
		},
		"methodIdentifiers": {
			"CreateZombie(uint256,string)": "c1cc9b6f"
		}
	},
	"abi": [
		{
			"inputs": [
				{
					"internalType": "uint256",
					"name": "_dna",
					"type": "uint256"
				},
				{
					"internalType": "string",
					"name": "_name",
					"type": "string"
				}
			],
			"name": "CreateZombie",
			"outputs": [],
			"stateMutability": "nonpayable",
			"type": "function"
		}
	]
}